:020000040800F2
:1000000048F30120450200087D40000851360008F1
:1000100079400008850A00080D480008000000002B
:10002000000000000000000000000000B1400008D7
:100030006D0C000800000000AD400008E54000081D
:100040005F0200085F0200085F0200085F0200080C
:100050005F0200085F020008710C00085F020008E0
:100060005F0200087D0C0008890C00085F02000890
:10007000B90A00085F0200085F0200085F0200087A
:100080005F0200085F0200085F0200085F020008CC
:10009000890A0008990A00085F020008950C000808
:1000A0005F0200085F0200085F0200085F020008AC
:1000B000014100085F0200085F0200085F020008BB
:1000C0005F0200085F0200085F0200085F0200088C
:1000D0005F020008ED4600085F02000819470008AB
:1000E0005F0200085F0200085F020008214100086B
:1000F000314100085F0200085F0200085F0200084B
:100100005F0200085F020008114100085F0200085A
:100110005F0200085F0200085F0200085F0200083B
:100120005F020008C90A0008D90A00085F02000837
:100130005F0200085F0200085F0200085F0200081B
:10014000A90A00085F0200085F0200085F020008B9
:100150005F020008E90A0008F90A0008E147000800
:100160005F0200085F0200085F0200085F020008EB
:100170005F0200085F0200085F0200080000000044
:100180005F0200085F02000800F002F800F04AF881
:100190000AA090E8000C82448344AAF10107DA45E2
:1001A00001D100F03FF8AFF2090EBAE80F0013F0EA
:1001B000010F18BFFB1A43F0010318470C69000038
:1001C0002C690000103A24BF78C878C1FAD85207C9
:1001D00024BF30C830C144BF04680C6070470000C1
:1001E0000023002400250026103A28BF78C1FBD840
:1001F000520728BF30C148BF0B607047642900F028
:10020000B980002070471FB506F00AFB9DE8030087
:1002100000F09CFA00F090F91FBD10B5002000F02E
:10022000CBFA10BD00F0F5FA1146FFF7ECFF06F02F
:1002300095F800F02DFB03B4FFF7EFFF03BC00F0CF
:100240005FFA00000948804709480047FEE7FEE7DB
:10025000FEE7FEE7FEE7FEE7FEE7FEE7FEE7FEE776
:1002600004480549054A064B70470000ED40000868
:10027000890100084823002048F3012048A30120F9
:1002800048A3012053EA020C00F069802DE9F04BED
:100290004FF00006002B1FBFB3FA83F503FA05F4F5
:1002A00024FA05F65E4012BF1643B2FA82F502FA4E
:1002B00005F4C5F120051EBF22FA05FC44EA0C0432
:1002C000203556EA044C4FEA144418BF641C4FF022
:1002D00000084FF00009904271EB030C39D300295C
:1002E00019BFB1FA81F701FA07F6B0FA80F700FA00
:1002F00007F6C7F120071EBF20FA07FC46EA0C06E6
:100300002037B6FBF4FCA7EB0507103F07F01F0BE7
:10031000CBF120062CFA06F60CFA0BFB44BFB346D1
:100320000026202FA4BF5E464FF0000B5BEA060CB0
:1003300008BF4FF0010B19EB0B0948EB0608ABFBAC
:10034000027C06FB02CC0BFB03CCC01B71EB0C0147
:10035000C1E70B46024641464846BDE8F08B13B55F
:10036000084318BF4FF0FF300146AFF30080BDE8EF
:100370001C4070472DE9F04106460024106875299D
:10038000314616A510D0AFF30080002802DA4042B3
:1003900013A507E031688A0701D512A502E04907D5
:1003A00004D511A5012401E0AFF3008000210A2249
:1003B00006F1240709E0B0FBF2FCB0FBF2F302FB0C
:1003C0001C00303078541846491C0028F3D12346CD
:1003D0002A463046BDE8F04100F016B900000000A2
:1003E0002D0000002B000000200000000B460146FD
:1003F000184600F06DB9032A40F2308010F0030C6B
:1004000000F0158011F8013BBCF1020F624498BF67
:1004100011F801CB00F8013B38BF11F8013BA2F104
:10042000040298BF00F801CB38BF00F8013B11F07F
:10043000030300F02580083AC0F0088051F8043B1F
:10044000083A51F804CBA0E80810F5E7121D5CBF8C
:1004500051F8043B40F8043BAFF30080D20724BFBF
:1004600011F8013B11F801CB48BF11F8012B24BF53
:1004700000F8013B00F801CB48BF00F8012B7047A2
:1004800010B5203AC0F00B80B1E81850A0E8185021
:10049000B1E81850A0E81850203ABFF4F5AF5FEA71
:1004A000027C24BFB1E81850A0E8185044BF18C916
:1004B00018C0BDE810405FEA827C24BF51F8043BBD
:1004C00040F8043B08BF7047D20728BF31F8023B11
:1004D00048BF11F8012B28BF20F8023B48BF00F8A5
:1004E000012B70474FF0000200B513469446964624
:1004F000203922BFA0E80C50A0E80C50B1F1200137
:10050000BFF4F7AF090728BFA0E80C5048BF0CC0E4
:100510005DF804EB890028BF40F8042B08BF704742
:1005200048BF20F8022B11F0804F18BF00F8012BB4
:10053000704770477047704770B5064C7C44064D55
:100540007D4404E02046016808448047241DAC42F5
:10055000F8D170BDA8650000A865000070B506461A
:1005600000F0D4F8056806F10B0020F00704B4424F
:100570009CBF002070BD2B466A68BAB11068A042CB
:1005800010D304F1080188423CBF5068586007D37B
:100590005168101941601168091B016058601460AE
:1005A000101D70BD13465268002AE7D12146284627
:1005B00000F0B8F80028DED170BD70B50446051F04
:1005C00000F0A4F80068002C14BF446870BD002C33
:1005D00018BFAC423CBF20466468F8D301680A18D3
:1005E000AA4218BF456003D12A680546114401603C
:1005F00028684119A1421CBF6C6070BD61686960C8
:1006000021680844286070BD2DE9F0470D469946E1
:100610009246044600F124080168880604D5E06982
:1006200021F01001216000E00120A84201DD471BFC
:1006300000E00027A1697A1902EB0900081AA061FD
:100640002078C00602D42046AFF30080002608E0E0
:10065000D4E901211AF806009047206A401C761C54
:1006600020624E45F4DB2078C0060AD52046AFF361
:10067000008006E0D4E9012130209047206A401C28
:100680002062381EA7F10107F4DC07E0D4E901215C
:1006900018F805009047206A401C2062281EA5F12A
:1006A0000105F3DC2046AFF300802078000602D578
:1006B0000220BDE8F0870120FBE710B5002000F024
:1006C0009CF8FFF7AAFDBDE81040012000F018B823
:1006D0002DE9F041074615460E461020FFF73EFF74
:1006E00004000AD06760C4E9026500F013F80168ED
:1006F000216004600020BDE8F0810120FBE70000DC
:1007000001491820ABBEFEE72600020000487047F2
:1007100018000020004870474800002070477047CC
:100720007047704738B504460A4600206946AFF363
:100730000080002808BF38BD02460099204600F01E
:100740008DF8012038BD012000F0C8B8F8B5AFF32E
:100750000080054600200C46102000BF0646A81960
:10076000A0420DD9324669460020AFF30080070051
:1007700008BF00F0B3F80098A04218BF0546C4199E
:10078000FFF7C4FF05600746F01D20F0070046197B
:10079000284600F00AF8B44208BFF8BDA21B314653
:1007A0003868BDE8F84000F059B800210160C0E9A0
:1007B00001107047102070472DE9F0410646FFF701
:1007C000A9FF8046454613E016B1E068B0420ED15D
:1007D00020682860D4E90101D8F8007088472046D5
:1007E000FFF7EBFED8F80000B842EBD100E0254659
:1007F0002C68002CE8D1BDE8F08110B500F056F867
:10080000BDE8104000F04DB80048704710000020CF
:1008100070477546FFF7F8FFAE4605006946534638
:1008200020F00700854618B020B5FFF719FDBDE898
:1008300020404FF000064FF000074FF000084FF047
:10084000000BAC46ACE8C009ACE8C009ACE8C00994
:10085000ACE8C00921F007018D46704703464068A7
:100860008C46002818BF88423CBF03464068F8D336
:1008700018681844884207D00CF1030020F00700E4
:10088000001D411A521A0146081D0A60FFF795BE65
:1008900010B50446AFF300802046BDE81040FFF7D6
:1008A000CABC002801D0FFF72BBF704710B500214C
:1008B00002A000F01AF8012010BD00005349474182
:1008C0004252543A2041626E6F726D616C207465C1
:1008D000726D696E6174696F6E00000010B500F092
:1008E0001DF8BDE81040FFF7DCBF70B505460C46AB
:1008F0000A2000E06D1C00F039F835B12878002896
:10090000F8D102E0641C00F031F814B1207800281E
:10091000F8D1BDE870400A2000F028B810B50128D1
:1009200005D0002103A0FFF7E0FF012010BD09A1C1
:10093000F8E7000053494752544D454D3A204F7552
:1009400074206F662068656170206D656D6F7279C7
:10095000000000003A2048656170206D656D6F727F
:100960007920636F727275707465640008B56946AA
:100970008DF800000320ABBE08BD000010B542F2A8
:100980000432C4F20102116821F440311160D2F83E
:1009900000C090E80A4043EA0C03C46813604A6848
:1009A00022F480724A6002694B6843EA02224A607C
:1009B0004A6822F040724A604A6842EA0E024A607F
:1009C0008A6822F400628A608A6822438A60826AA6
:1009D0008B68012423F070638B608B68C0F6007411
:1009E000A24202D123F0405208E01A438A608A688A
:1009F00022F040528A60C26A8B681A438A608A6811
:100A000022F002028A608A68037E90F8204042EA5F
:100A100043028A604A6884B142F400624A604A68CC
:100A20004EF2000322F460424A60426ACFF6FF733E
:100A30004C6803EB4232224301E022F400624A6038
:100A4000CA6A40F2000C22F47002CA62C3694269A9
:100A5000CFF6F07CCC6A0CEB03532343CB628B685C
:100A600023F400738B6090F830008B6843EA4020D9
:100A70008860886820F480608860886840EA822006
:100A8000886010BDFEE7000080B540F21410C2F28D
:100A9000000000F081FB80BD80B540F21410C2F26E
:100AA000000000F079FB80BD80B540F23C10C2F23E
:100AB000000000F071FB80BD80B540F22420C2F23E
:100AC000000000F0DDFE80BD80B540F28420C2F25F
:100AD000000000F0D5FE80BD80B540F26410C2F287
:100AE000000000F0CDFE80BD80B540F2E420C2F2EF
:100AF000000000F0C5FE80BD80B540F24C60C2F23F
:100B00000000202180F83D1040F2C410C2F2000025
:100B1000012146F20C4C80F83510C4F2020C036837
:100B20000CF14C0246F2080E9342C4F2020E06D9B2
:100B30004FF00061CCF8001093420AD920E00EF18A
:100B4000B0018B4210D94FF00061CEF800149342EF
:100B500016D80EF1B0018B421DD94FF08061CEF84E
:100B60000014934212D822E00EF150018B424FF054
:100B7000006194BFCEF80010CEF804109342E8D97B
:100B80004FF08061CCF80010934210D94FF48001EF
:100B9000CCF800101EE00EF150018B424FF0806146
:100BA00094BFCEF80010CEF804109342EED80EF1A8
:100BB000B0018B4204D94FF48001CEF8001409E053
:100BC0000EF150018B424FF4800194BFCEF800101B
:100BD000CEF80410002180F8341000F051FE80BDE2
:100BE000D0F800C06FF00F024AF6AB2352FA8CF235
:100BF000CAF6AA230146A2FB0330000905A31B5C29
:100C000040F2FF302CEA00005F2A88BF0430C1E9BF
:100C10001603704700061016000610168269816AD6
:100C2000B2F5005F06D06AB9022912D0012914D0AA
:100C3000D1B90EE0032917D8DFE801F0020B020F4B
:100C40000120704703293CBF012070471CBF0020D2
:100C50007047C06AC0F300607047C06AA0F1C070FE
:100C6000B0FA80F0400970470020704770470000DC
:100C700080B5012000F034FF80BD000080B5082061
:100C800000F02EFF80BD000080B5102000F028FF8E
:100C900080BD000080B5202000F022FF80BD000054
:100CA000EFF3108072B600BFFEE7000070B581B0B0
:100CB0000022009290F83C20012A01D1022156E046
:100CC0000E6801221FFA86FC80F83C204FEA4C0295
:100CD00012FA86F302680A2E32BF10321E3B0C3223
:100CE0004FF0070E15680EFA03F4A54315608D68E2
:100CF000146805FA03F3234313604968062906D8EC
:100D0000026801EB8101053902F134030AE00C2984
:100D100001EB8101026887BF413902F12C032339BD
:100D200002F130031F221C688A4024EA02021A6082
:100D30001A680CFA01F1114342F2043E1960C4F240
:100D4000010E0168122EAEF5417208BF914205D125
:100D5000DEF8003043F48003CEF8003026F00103C3
:100D6000102B08BF914205D0002180F83C100846A6
:100D700001B070BDDEF80010102E41F40001CEF875
:100D80000010F1D140F20001C2F2000109684DF6F5
:100D90008362C4F21B32A1FB0212910C01EB8101B0
:100DA000490000BF009100990029DDD00099013968
:100DB000F8E70000B0B510B30446006C30B9204627
:100DC00000F020F80020606484F83C00206C0125CD
:100DD000C0060FD4206C41F2021188430230206417
:100DE0002046FFF7CBFD00206064206C65F3010016
:100DF00000252064002084F83C002846B0BD012076
:100E0000B0BD000080B586B0006842F20022C4F296
:100E1000010200219042CDE90411CDE902110191B6
:100E200016D042F20001C4F20101884238D10020FC
:100E3000009043F64400C4F20200016841F480715E
:100E40000160006800F480700090009806B080BDDA
:100E500043F644000091C4F20200026842F480624A
:100E60000260026802F480620092009A009150F8D9
:100E7000142C42F0200240F8142C50F8140C00F00E
:100E80002000009000984FF4806001900320CDE98D
:100E9000020141F20040C4F2020001A900F02EFE5E
:100EA00006B080BD90F82020013A012A04D80068DD
:100EB00000F11402002004E000F1240201204FF4AC
:100EC00080211368194311607047000010B590F835
:100ED00020E0D0F800C0AEF1010EBEF1010FDCF849
:100EE00008E00DD81EF0E05F10D0CEF3016EBEF129
:100EF000030F11D100F1240101204FF4000233E06F
:100F000000F1240101204FF480222DE000F12401A2
:100F100001204FF4001227E0012000FA0EF01860C3
:100F2000886818B14B6840EAC30001E008684005D2
:100F3000D1E9033403430CEB0E10C0F88031C0F844
:100F40008441097D012905D100F5C2710B6843F484
:100F500080730B605168C0F88C11126800F5C07185
:100F6000C0F88821002001220B681A430A6010BDD6
:100F7000B0B590F82020013A012A2FD846F200603F
:100F8000C4F20000026842F001020260026822F42A
:100F90007C520260D1F814E0CC694A6A0368012CE3
:100FA00043EA022202600EF01F024FF0010303FA2F
:100FB00002F2C3696FEA020C23EA0203C36113D091
:100FC0002CBBC36803EA0C03C360CB688C8844EA7B
:100FD000034300EBCE0423640B4611E0416A41F465
:100FE000802141620120B0BDC3681343C3600B6818
:100FF0008C8844EA034300EBCE04236401F10C0324
:101000008C681B8843EA044300EBCE0463644368A6
:101010008D6943EA0204D1F810E0096A002D08BF87
:1010200003EA0C0444604369BEF1000F43EA020482
:1010300008BF03EA0C040129446102D1C1691143CC
:10104000C161016821F0010101600020B0BD000014
:101050007047000010B590F82040013C012C0CD8DE
:10106000D0F800C079B1DCF81040A4070FD100F12E
:10107000240101204FF4001270E000F1240101204E
:101080004FF480226AE0DCF80C40A4076AD00468C0
:1010900004EB011CDCF8B0410CF5D87E14F004041C
:1010A0009460DCF8B04119BFE4085460640D14602A
:1010B000DEF80040002904F00204D460DCF8B441FA
:1010C00004F00F041461DCF8B441C4F30724946104
:1010D000DCF8B4414FEA14445461DCF8B8211A70CA
:1010E000026802EB0112D2F8B8214FEA12225A70BC
:1010F000026802EB0112D2F8B8214FEA12429A704C
:10110000026802EB0112D2F8B8214FEA1262DA70DB
:10111000026802EB0112D2F8BC211A71026802EBDC
:101120000112D2F8BC214FEA12225A71026802EB76
:101130000112D2F8BC214FEA12429A71026802EB06
:101140000112D2F8BC214FEA1262DA71006814BFB2
:1011500000F1100100F10C01002020220B681A435D
:101160000A6010BD00F1240101204FF40012F5E7E0
:1011700090F820100139012984BF002070470068D1
:10118000816882688068C1F38061C2F3C0621144E3
:10119000C0F30070084470472DE9F04F81B0044659
:1011A00000684669D0F804908768D0F80CB0D0F891
:1011B00010A0D0F81880F10703D1002530071CD407
:1011C00023E0F90710D00121BA07816009D478071C
:1011D00000F1AA80380700F1B080204600F0F0FA54
:1011E00002E0204600F0EEFA0025F80500F18480C8
:1011F000F80300F1AA80300707D51BF0100004D0D7
:10120000206845F400751021C160700708D51BF0F7
:10121000080005D020680821C160204600F0F4F9DC
:10122000B00706D52068C068800702D0204600F0CD
:10123000EDF9700607D51AF0100004D0206845F4C7
:10124000806510210161B00608D51AF0080005D0AC
:10125000206808210161204600F07EFAF00606D5DC
:1012600020680069800702D0204600F077FAB003BA
:1012700008D519F0100005D02068102141602046E3
:1012800000F06EFAF00308D519F0080005D02068C8
:1012900008214160204600F09FFA300440F18F8021
:1012A0005FEA497040F1888006F4807008EA1020F7
:1012B00028435FEA8871014648BF41F00201B20548
:1012C00058BF01465FEA48700D4648BF45F0040527
:1012D000700558BF0D4630056ED518F070006BD004
:1012E00010380009052862D8DFE800F0035356598A
:1012F0005C5F45F008055AE020684FF48071BA053C
:1013000081600AD4780512D4380519D4204600F03B
:101310005BFAF8037FF56FAF17E0204600F056FA4E
:10132000F8037FF568AF10E04FF400655DE705F561
:101330000055F8037FF55FAF07E04FF4805554E7A1
:1013400005F58045F8037FF556AF20684FF48031EE
:10135000BA0381600AD478030FD4380313D420462B
:1013600000F036FA30073FF548AF4EE7204600F070
:1013700031FA30073FF541AF47E705F50045300743
:101380003FF53BAF41E705F5803530073FF535AF19
:101390003BE745F010050AE045F0200507E045F081
:1013A000400504E045F0800501E045F480752068C3
:1013B000816921F0700181612068042141602DB1B3
:1013C000606A284360622046FFF742FE01B0BDE834
:1013D000F08F0000B0B5C8B1044690F8200010B9F5
:1013E000204600F071F82068016841F001010160B9
:1013F00000F058FC054600BF20684168C90707D1C6
:1014000000F050FC401B0B28F6D312E00120B0BDC9
:10141000016821F00201016000F044FC054600BFB4
:101420002068416889070DD500F03CFC401B0B2863
:10143000F6D3606A052140F400306062012084F830
:101440002010B0BD217E0268012922F0800208BF71
:1014500080320260617E0268012922F0400208BFEA
:1014600040320260A17E0268012922F0200208BFFA
:1014700020320260E17E0268012922F0100218BFCA
:1014800010320260217F0268012922F0080208BFA1
:1014900008320260617F0268012922F0040208BF5D
:1014A00004320260D4E901C2D4E9033561691A4308
:1014B0002A431143ACF101021143C1610020012113
:1014C000606284F82010B0BD10B586B0006846F6A2
:1014D0000002C4F2000200219042CDE90411CDE9DE
:1014E0000211019146D046F20041C4F20001884247
:1014F00040F0888040F27001C2F200010A6843F6B1
:101500004000C4F20200531C0B6052B9002100914C
:10151000016841F000710160016801F00071009103
:1015200000990021009150F8102C42F0080240F878
:10153000102C50F8100C022200F0080000900098C7
:101540000320019004900920059040F20040C4F26D
:101550000200CDE9022100F5006001A900F0CEFAF9
:1015600014200021002200F06FFD142000F068FD1F
:1015700015243FE043F64000C4F2020000910168E8
:1015800041F080610160016801F080610091009983
:1015900040F27001C2F200010A68531C0B6052B99C
:1015A00000210091016841F000710160016801F0C3
:1015B0000071009100990021009150F8102C42F028
:1015C000020240F8102C50F8100C00F002000090BD
:1015D0000098602001900220CDE9020103200490D0
:1015E0000920059040F20040C4F2020001A900F079
:1015F00085FA402420460021002200F025FD2046E7
:1016000000F01EFD06B010BD704700002DE9F04F40
:101610008BB040F21874C2F200040646204603F074
:10162000C7FD8346204603F0C7FD02AD824604AAEB
:10163000304600212B46FFF70DFD40F21410C2F298
:1016400000008642019609D040F23C100199C2F296
:101650000000814240D00BB0BDE8F08FBBF818000D
:101660000028F1D0002608E004F02CFA2168086375
:10167000BBF8180001368642E6D20BEB860454F81C
:101680001C0F049900688842F2D1002021682A5C6E
:101690000144013008280A77F8D12768D7E90A12EF
:1016A000D7E90C0311F1010942F1000844F240228C
:1016B000C11AC0F20F029142C7E90A98D4D9D7E9FA
:1016C00010127863B9EB010068EB020105F078F8BD
:1016D000B863C7E91098C7E7BAF818000028BAD06D
:1016E00044F240280026C0F20F0808E004F0EAF9AE
:1016F00021680863BAF8180001368642ABD20AEBBB
:10170000860454F81C0F049900688842F2D1002026
:1017100021682A5C0144013008280A77F8D127683B
:10172000D7E90A12D7E90C0311F10109A0EB030173
:1017300042F1000B4145C7E90A9BD7D9D7E91012FE
:101740007863B9EB01006BEB020105F039F8B8637F
:10175000C7E9109BCAE7000070470000704700000F
:1017600070470000B0B5044690F8200001281DD154
:10177000022084F820002068016821F00101016046
:1017800000F090FA054600BF20684068C00713D0FB
:1017900000F088FA401B0B28F6D3606A40F4003052
:1017A0006062052084F820000120B0BD606A40F42A
:1017B000002060620120B0BD00206062B0BD00006A
:1017C000704700007047000070470000704700003D
:1017D00070470000704700007047000070B5866DCC
:1017E000044600F05FFA94F83510022925D1054629
:1017F0002068216C026822F016020260426922F021
:101800008002426109B9A16C19B1016821F0080197
:101810000160016821F00101016000BF20680068DB
:10182000C0070ED000F03EFA401B0628F6D3202059
:101830006065032084F835000CE08020606501209D
:1018400008E0E06D3F2101FA00F0B060012084F86B
:1018500035000020002184F8341070BD90F8351058
:10186000022909D1052180F835100068016821F0AE
:10187000010101600020704780214165012070470F
:10188000F0B581B004460020009040F20000C2F2A2
:1018900000000268D4E9166048F2B51337680821E1
:1018A000C1F64E3381403942A2FB03250CD0226899
:1018B00013685B0708D5136823F004031360B16055
:1018C000616D41F00101616501218140394208D01B
:1018D00022685269120604D5B160616D41F00201BF
:1018E000616504218140394208D02268126892075C
:1018F00004D5B160616D41F0040161651021814042
:10190000394215D020680268120711D5B16002680B
:101910000168520306D4C90506D4016821F0080104
:10192000016001E0080342D4216C09B120468847D8
:10193000E16D202000FA01F23A4244D020680368A9
:10194000DB0640D5B26094F835300268052B1ED115
:1019500022F016020260426922F080024261226C8B
:101960000AB9A26C1AB1026822F0080202603F2094
:101970008840B060012084F83500216D00200029E6
:1019800084F8340040D02046884701B0F0BD01689B
:10199000520310D4C90512D4016821F0100101606E
:1019A000012084F83500002084F8340007E0A16CA1
:1019B0000029BBD1BCE7080301D4616C00E0E16BF6
:1019C00009B120468847606DF0B1606DC00717D03F
:1019D000052084F835002068A90A026822F0010277
:1019E000026000BF009A01328A42009202D8026867
:1019F000D207F7D1012084F83500002084F83400A4
:101A0000E16C09B12046884701B0F0BD2DE9F041F5
:101A1000044600F047F9C4B10546022084F83500B9
:101A20000020216884F83400086820F00100086074
:101A300026683068C0070BD000F034F9401B052839
:101A4000F6D903212022032042E00120BDE8F081E5
:101A5000306848F23F01CFF21001251D00EA010C69
:101A60002ECDD4E9050E41EA0C0111431943294357
:101A7000D4E90778084340EA0E01606A3943042834
:101A800041EA080103D1D4E90B2311431943316022
:101A90007169042821F0070141EA00050CD1D4E95D
:101AA0000A1045EA010538B12046FFF7B7F818B12A
:101AB0000121402201200BE020467561FFF790F8DC
:101AC000E16D3F2202FA01F1816000220121002034
:101AD000626584F83510BDE8F081000070470000B1
:101AE00080B543F61441C4F201010A68024208BFFE
:101AF00080BD0860FFF7F2FF80BD00002DE9F04FC8
:101B000083B000F13E4202F1FF724FEAB22241F689
:101B100000470192C4F2020708224FF0010E00258F
:101B20004FF0000A4FF00008B84208BF07220092A9
:101B30000AE000BF08F101080AF1040AB8F1100F29
:101B400005F1020500F0A4800C680EFA08FB14EA07
:101B50000B09EFD04C6804F0030CACF1010EBEF1A0
:101B6000010F11D80322876802FA05F6CA68B74345
:101B7000AA403A4382604268C4F3001722EA0B028B
:101B800007FA08F73A434260BCF1030F1CD0C26861
:101B900003238E6803FA05F7BA4306FA05F73A43BA
:101BA000BCF1020FC2600FD16FF0030202EA5802CB
:101BB00002440AF01C060F23176A03FA06F40B69A5
:101BC000A743B3403B431362026803234F68AB4013
:101BD0009A4307F00303AB401A4317F4403F4FF01A
:101BE000010E0260A6D0002243F644030292C4F222
:101BF00002031A6843F6004442F480421A601A68ED
:101C0000C4F2010402F480420292029A28F0030214
:101C10004FF6084B2244CFF6FF7B52F80B300AF008
:101C20000C070F26BE4023EA060C019B009E072BE3
:101C300038BF1E4606FA07F747EA0C0342F80B3096
:101C4000A2684B6842EA090743F60C4CDE0258BF13
:101C500022EA0907A760C4F2010CDCF800209E020A
:101C600042EA090758BF22EA0907CCF80070626807
:101C70009E0342EA090758BF22EA09076760226803
:101C8000DB0342EA090358BF22EA0903236051E754
:101C900003B0BDE8F08F0000002A08BF090481618D
:101CA0007047000042F24430C2F200000068704702
:101CB000F0B581B0B0B3044690F83D0028B90020DB
:101CC00084F83C00204600F0BFF8242084F83D0052
:101CD0002068016821F001010160016841F40041C0
:101CE0000160016821F40041016000F077FA48F2D8
:101CF0008041C0F21E0140F60012656888424FF034
:101D00000001C0F23D0248F2A16C4FF0000338BF61
:101D100001219042C0F2010C38BF0123654538BF54
:101D20000B4613B1012001B0F0BD4DF68361C4F242
:101D30001B31A0FB011221684FEA924E4B684FF411
:101D4000967623F03F0343EA92434B6044F6D35325
:101D50000F6A0EFB06F6C1F26203A6FB033627F0FC
:101D60003F03B709654538BF970C7A1C1A430A62CE
:101D7000CA6948F2A0674CF6FF73C0F20107BD4282
:101D800022EA030C0AD801386A00B0FBF2F00130F5
:101D90006FF31F30042898BF04202BE0A368A0F144
:101DA000010E9BB119206843BEFBF0F00422013004
:101DB00062F31F30000512D09BB119206843BEFBAF
:101DC000F0F00422013062F31F3011E005EB450012
:101DD000BEFBF0F001306FF31F300005ECD10120A5
:101DE00008E005EB4500BEFBF0F001306FF31F305B
:101DF00040F4004040EA0C00C8610868D4E90723B9
:101E000020F0C000104318430860886848F2FF3291
:101E100004F10C0790438CCF18431043A6698860E7
:101E2000C86820F0FF0038433043C860086840F0BD
:101E30000100086000202021206484F83D10206308
:101E400084F83E0001B0F0BD2DE9F04F87B0006886
:101E500045F60041C4F2000100268842CDE905663E
:101E6000CDE90366029632D045F60001C4F20001C6
:101E7000884273D1002543F630040195C4F2020470
:101E80002068122140F020002060206800F020002F
:101E9000019001980320039101210290CDE90410E3
:101EA000042006900020C4F2020000F5A05002A910
:101EB000FFF724FE0195206940F48000206120692D
:101EC00000F480000190019807B0BDE8F08F43F660
:101ED00030070196C4F202073868002440F004007D
:101EE00038603868C4F2020400F0040001900198E0
:101EF0000196386802AD40F00100386038684FF054
:101F0000120800F00100019001984FF40070029057
:101F10004FF001094FF0030A4FF0040B04F5006085
:101F20002946CDF80C80CDF81090CDF814A0CDF84E
:101F300018B0FFF7E3FD4FF4807002A981E8010FAC
:101F400020462946FFF7DAFD0196386940F4000083
:101F50003861386900F400000190019807B0BDE8CD
:101F6000F08F000040F2080042F24431C2F200005B
:101F7000C2F2000100780A6810440860704700004F
:101F800080B543F60040C4F20200016841F40071DC
:101F90000160016841F480610160016841F4807171
:101FA0000160032000F060F8002000F005F800F068
:101FB0002BF8002080BD0000B0B540F20802C2F24C
:101FC000000240F200011278C2F200014FF47A736D
:101FD0000968B3FBF2F20446B1FBF2F1084600F0E7
:101FE000CFFB0F2C4FF001050CD858B94FF0FF3044
:101FF00021460022002500F027F840F20C00C2F232
:10200000000004602846B0BD82B0002043F64001C5
:102010000190C4F202014A6842F480424A604A6870
:1020200002F480420192019A0090086840F08050CA
:102030000860086800F080500090009802B0704777
:1020400080B504F027F980BD70B514460D460646EC
:1020500004F030F92946224602F012F801463046D3
:1020600004F030F970BD000080B504F03DF980BD8A
:102070002DE9F041002800F08B8043F60808C4F2F7
:1020800002080446D8F8F8030D4600F0070088421D
:1020900007D288F8F853D8F8F80300F00700A842F0
:1020A00076D12068810717D5410705D5D8F80010EB
:1020B00041F4E051C8F80010010705D5D8F8001028
:1020C00041F46041C8F80010D8F80010A26821F06F
:1020D000F0011143C8F80010C0073FD1D8F8F80349
:1020E00000F00700A84207D988F8F853D8F8F80399
:1020F00000F00700A8424BD12068410707D5D8F867
:102100000010E26821F4E0511143C8F80010000704
:1021100008D5D8F80000216920F4604040EAC100E9
:10212000C8F8000000F07EF8D8F8001046F6FC026F
:10213000C1F30311C0F60002515C40F2000220FA24
:1021400001F140F20C00C2F200000068C2F200028D
:102150001160FFF731FF0020BDE8F0816068811E4B
:10216000022907D258F8081C89015CBF0120BDE88C
:10217000F08110E0012807D158F8081C89035CBFE2
:102180000120BDE8F08106E058F8081C890702D458
:102190000120BDE8F081D8F8001021F003010843C8
:1021A000C8F80000FFF77EFD064641F2883700BF01
:1021B000D8F80000616800F00C00B0EB810F8DD002
:1021C000FFF770FD801BB842F2D90320BDE8F08113
:1021D00040F20000C2F200000068704780B5FFF7CF
:1021E000F7FF43F60801C4F20201096846F60C1233
:1021F000C1F38221C0F60002515CC84080BD0000DE
:1022000080B5FFF7E5FF43F60801C4F20201096853
:1022100046F60C12C1F34231C0F60002515CC840D0
:1022200080BD000010B543F60404C4F202046068E7
:1022300000F00C0008280AD0042819BF42F2004020
:10224000C0F2F40041F60030C0F2B70010BD2068C3
:1022500021682368490241F60031C0F2B70100F05D
:102260003F02C3F388105CBF42F20041C0F2F401A8
:10227000A1FB00010023FEF705F821680222C1F34B
:10228000014102EB4101B0FBF1F010BD2DE9F0413D
:1022900082B0002800F0A2800446007843F60006D1
:1022A000C007C4F2020643D0B06800F00C00042856
:1022B00005D1306880033BD56068C8BB8EE0B0684C
:1022C00000F00C00082802D170684002F1D4656863
:1022D000B5F5A02F0AD0B5F5803F0BD0306820F4BB
:1022E00080303060306820F4802006E0306840F4B0
:1022F00080203060306840F480303060FFF7D2FCDE
:10230000002D054611D000BF3068800310D4FFF7C0
:10231000C9FC401B6428F7D922E100BFFFF7C2FCCB
:10232000401B64284FF0030055D830688003F5D473
:10233000207880071AD5B06810F00C0F09D0B0686B
:1023400000F00C00082840F08A807068400200F11C
:1023500086803068800702D5E06801283ED1306869
:10236000216920F0F80040EAC100306020780007C1
:1023700038D4207840074CD4A5695DB3B06800F02C
:102380000C00082840F09E80012D27D07068E1697C
:1023900000F480028A4221D1216A00F03F028A4281
:1023A0001CD147F6C071626A0140B1EB821F15D1A2
:1023B000A26A0023CFF6FF7303EBC23200F4403170
:1023C0006FF30F02914209D1E16A00F07060B0EB47
:1023D000016F03D1002002B0BDE8F081012002B0FE
:1023E000BDE8F0816069002840F20000C4F2472097
:1023F00057D00121C0F8801EFFF754FC054600BFEE
:10240000706F8007B5D4FFF74DFC401B0228F7D949
:10241000A6E0306C10F080580AD100200190306C9A
:1024200040F080503064306C00F080500190019892
:1024300047F20007C4F200073868C00524D43868A2
:1024400040F480703860FFF72DFC05463868C00501
:102450001AD4FFF727FC401B0228F7D980E0E06878
:10246000002851D00020C4F2472001210160FFF76D
:1024700019FC0546306880073FF571AFFFF712FC85
:10248000401B0228F6D96BE0A568052D50D0012D20
:1024900052D0306F20F001003067306F20F0040020
:1024A0004DE00021C0F8801EFFF7FCFB054600BF91
:1024B000706F80077FF55DAFFFF7F4FB401B0228CC
:1024C000F6D94DE00027C4F2472700203866FFF711
:1024D000E9FB022D05460BD13068800158D5FFF786
:1024E000E1FB401B02284FF00300F5D973E700BF62
:1024F000306880017FF56EAFFFF7D4FB401B0228E8
:102500004FF00300F4D966E70020C4F24720002111
:102510000160FFF7C7FB0546306880077FF526AFEF
:10252000FFF7C0FB401B02284FF00300F4D952E72D
:10253000306F40F004003067306F40F001003067CA
:10254000FFF7B0FB002D054641F2883714D000BFDD
:10255000306F800713D4FFF7A5FB401BB842F7D9B3
:10256000032002B0BDE8F081FFF79CFB401BB8429E
:102570004FF003003FF62FAF306F8007F4D4B8F16F
:10258000000F7FF4F9AE306C20F080503064F3E639
:1025900004F11C052FCD08430021CFF6FF7140EA5E
:1025A000821001EBC3316FF30F0140EA056008436D
:1025B000706001203866FFF775FB044630688001C3
:1025C0003FF508AFFFF76EFB001B02284FF003003A
:1025D000F4D900E770B538B10446406A30B1002044
:1025E000206104F1140007E0012070BD6068B0F5BF
:1025F000827F03D004F11C00002101600026A66246
:1026000094F8510020B9204684F8506000F03CF85E
:10261000022084F8510094E80F0001F482710568EB
:1026200002F4044225F040050560114403F4006201
:102630002369114403F002026369114403F00102AB
:10264000A369E569114403F40072114405F03802EE
:10265000256A114405F08002A56A114305F4005271
:1026600011430160626A042101EA134102F0100281
:1026700011444160C16921F40061C16101206665B6
:1026800084F85100304670BDF0B587B0006843F65D
:102690000002C4F2000200219042CDE90511CDE90B
:1026A0000311029141D043F20001C4F201018842BA
:1026B00064D1002543F630000195C4F2020041695F
:1026C00040F2004441F4805141614169C4F2020486
:1026D00001F480510191019901950168022641F0B0
:1026E000020101600168032701F0020101910199D3
:1026F0000195016841F001010160006802A900F044
:1027000001000190019818200290052006902046B3
:10271000CDE903650597FFF7F1F98020CDE90206C1
:10272000CDE90457A4F5806023E043F63000019121
:10273000C4F20200026942F480420261026902F4BA
:1027400080420192019A0191026842F00202026005
:10275000006800F00200019001984FF46040029080
:102760000220CDE903010320059040F20040C4F2AD
:1027700002000521069102A9FFF7C0F907B0F0BDDC
:1027800080B501F097FC80BD7047000070470000E5
:10279000B0B590F83C20012A04BF0220B0BD01F181
:1027A00008053CCDD1E900CE23F47C5322F47052CD
:1027B0001A432EF4F0431A432CF4E0431A4324F452
:1027C000C0431A432A43C96922F480420368114373
:1027D0005964002180F83C100846B0BD10B590F84F
:1027E0003C20012A4FF0020252D0012380F83C30F5
:1027F00080F83D200268D2F804E0D2F808C00C68E6
:102800002EF07003234341F2FF74C4F20004A2428D
:1028100053600DDC40F2FF73C4F200039A4215DCF2
:10282000B2F1804F29D040F20043C4F2000322E00D
:1028300040F2FF33C4F201039A4212DC41F6000376
:10284000C4F200039A4218D0002312E040F60003BD
:10285000C4F200039A4210D040F60043C4F20003D1
:1028600009E044F20003C4F201039A4205D040F2A9
:102870000043C4F201039A4204D149682CF080035A
:10288000194391600121002280F83D1080F83C201E
:10289000104610BD002804BF0120704710B5044643
:1028A00090F83D0028B9002084F83C00204600F054
:1028B0001FF8022084F83D002068211D01F040FC33
:1028C000012084F8460084F83E0084F83F0084F834
:1028D000400084F8410084F8420084F8430084F802
:1028E000440084F8450084F83D00002010BD00003D
:1028F00080B582B000684FF6FF71C4F200018842D3
:1029000021DD44F20041C4F2010188423DD040F291
:102910000041C4F20101884248D00021C4F2010103
:10292000884241D10020019043F64400C4F20200E5
:10293000016841F001010160006800F001000190B0
:10294000019802B080BDB0F1804F4DD040F60041FB
:10295000C4F20001884227D10020019043F64400D0
:10296000C4F2020050F8041C002241F0080140F8B3
:10297000041C50F8040C002100F00800019001989C
:102980003220FFF761FB322046E00020019043F641
:102990004400C4F20200016841F4003101600068A3
:1029A00000F400300190019802B080BD0020019039
:1029B00043F64400C4F202000168002241F0020123
:1029C00001600068002100F00200019001982B20B6
:1029D000FFF73AFB2B20FFF733FB2C2000210022CE
:1029E000FFF732FB2C2017E00020019043F6440053
:1029F000C4F2020050F8041C002241F0010140F82A
:102A0000041C50F8040C002100F001000190019812
:102A10001C20FFF719FB1C20FFF712FB02B080BD42
:102A200090F83D1001291CBF01207047022180F859
:102A30003D10006841F2FF72C168C4F2000290428A
:102A400041F00101C1600DDC40F2FF71C4F20001F0
:102A5000884215DCB0F1804F29D040F20041C4F229
:102A6000000122E040F2FF31C4F20101884212DC91
:102A700041F60001C4F20001884218D0002112E0A2
:102A800040F60001C4F20001884210D040F6004137
:102A9000C4F2000109E044F20001C4F201018842DD
:102AA00005D040F20041C4F20101884206D181689C
:102AB00001F00701062904BF00207047016841F0BA
:102AC000010101600020704710B5044690F83C00F9
:102AD00001284FF0020008BF10BD012284F83C20FD
:102AE00084F83D0020684FF6777382689A438260CD
:102AF0000A684F2A0FDC1F2A22DD202A23D0302A21
:102B000021D0402A4DD14B68CA68194601F094FC87
:102B1000206840213BE06F2A17DDB2F5005F20D02E
:102B2000B2F5805F2AD0702A3BD1D1E9012CCB6865
:102B3000614601F0A9FB2068816841F077011AE045
:102B40000AB1102A2DD1114621E0502A18D0602A4E
:102B500027D14B68CA68194601F080FC20686021C3
:102B600015E0D1E9012CCB68614601F08DFB2068AE
:102B7000816841F48041816000200BE0002009E081
:102B80004B68CA68194601F057FC2068502101F0D3
:102B900087FB0020012184F83D10002184F83C10BF
:102BA00010BD0120F6E700007047000010B5044694
:102BB00000680169890744BFC1685FEA817138D440
:102BC00020680169490744BFC1685FEA41713CD48C
:102BD00020680169090744BFC1685FEA017141D4F7
:102BE00020680169C90644BFC1685FEAC16145D474
:102BF00020680169C9071CBFC1685FEAC1714AD179
:102C000020680169090644BFC1685FEA016149D4CF
:102C100020680169490644BFC1685FEA416148D440
:102C200020680169890644BFC1685FEA816147D4B1
:102C300010BD6FF0020101610121217780698007D9
:102C400045D02046FFF7B0FF47E06FF00401016177
:102C500002212177806910F4407F41D02046FFF7A0
:102C6000A3FF43E06FF00801016104212177C069EF
:102C700080073ED02046FFF797FF40E06FF010013D
:102C8000016108212177C06910F4407F3AD02046C5
:102C9000FFF78AFF3CE06FF001010161204600F080
:102CA000FBF9ADE76FF0800101612046FFF76CFD95
:102CB000AEE76FF040010161204600F001FAAFE796
:102CC0006FF0200101612046FFF760FD10BD204636
:102CD00000F0B6F8204600F04BF9002020776FE7AF
:102CE000204600F0ADF8204600F042F900202077A1
:102CF0006EE7204600F0A4F8204600F039F90020E5
:102D000020776DE7204600F09BF8204600F030F970
:102D1000002020776CE7000080B586B0006840F2A4
:102D2000FF31C4F2010188424FF000010591CDE965
:102D30000311CDE9011124DC40F60001C4F20001C9
:102D4000884242D00021C4F20101884276D100209D
:102D5000009043F63000C4F20200016841F0100117
:102D600001600068012100F01000009000984FF40D
:102D70002060019040F60040C4F2020000F580603F
:102D800053E040F20041C4F20101884235D044F2E0
:102D90000041C4F20101884250D10020009043F666
:102DA0003000C4F20200016841F0200101600068B7
:102DB00000F02000009000984020019040F6004074
:102DC000C4F2020000F500602EE00020009043F6FF
:102DD0003000C4F20200016841F00801016000689F
:102DE000022100F00800009000984FF4804001900C
:102DF00040F60040C4F2020017E00020009043F6C5
:102E00003000C4F20200016841F480710160006882
:102E100000F4807000900098C020019040F60040BF
:102E2000C4F2020000F5A050032102220292002207
:102E3000059101A9CDE90322FEF760FE06B080BD31
:102E400070470000B0B5044690F83C00012804BF6C
:102E50000220B0BD0D464FEAB2010120032984F8DB
:102E60003C0037D8DFE801F0020A12222068294628
:102E700001F01EFA206850F8181F0EE0206829465D
:102E800001F048FA206850F8181F16E0206829461B
:102E900001F076FA206850F81C1F41F0080101602B
:102EA000016821F00401016029690FE020682946CA
:102EB00001F09AFA206850F81C1F41F4006101608B
:102EC000016821F4806101602969090202681143E7
:102ED00001600020002184F83C10B0BD002804BF30
:102EE0000120704710B5044690F83D0028B9002035
:102EF00084F83C00204600F01FF8022084F83D00D2
:102F00002068211D01F01CF9012084F8460084F896
:102F10003E0084F83F0084F8400084F8410084F8C3
:102F2000420084F8430084F8440084F8450084F8A3
:102F30003D00002010BD000081B0006840F6000197
:102F4000C4F20001884201D001B070470020009017
:102F500043F64000C4F20200016841F00401016040
:102F6000006800F004000090009801B07047000075
:102F70007047000010B5044641B1082909D0042962
:102F800014BF04F1410004F13F0004E004F13E00ED
:102F900001E004F14000007801281CBF012010BDB1
:102FA000022041B1082909D0042914BF84F8410046
:102FB00084F83F0004E084F83E0001E084F840001B
:102FC0002068012201F04EF9206841F2FF71C4F23D
:102FD000000188420FDC40F2FF71C4F20001884218
:102FE00017DCB0F1804F49D040F20041C4F200013B
:102FF000884243D049E040F2FF32C4F201029042DD
:1030000014DC41F60003C4F20003984236D00023DA
:1030100014E040F60001C4F2000188422ED040F6D0
:103020000041C4F20001884228D02EE044F200039F
:10303000C4F20103984221D040F20043C4F20103DC
:10304000984222D1436C884243F400434364C2DD7A
:10305000904207DC41F60001C4F2000188420DD025
:10306000002107E044F20001C4F20101884205D0CA
:1030700040F20041C4F20101884206D1816801F0AA
:103080000701062904BF002010BD016841F00101BD
:103090000160002010BD000040F22C51C2F200017E
:1030A000884218BF704740F27C00C2F200000178ED
:1030B0000131CAB2C72A88BF0021017070470000E1
:1030C000704700007047000070470000B0B582B044
:1030D000036804461868D9685A6900F02F05202D46
:1030E00001F0200505D125B1204601F005FA02B016
:1030F000B0BD5FEA007C1EBF02F0010E01F49072C9
:1031000012EB0E0248D1226B0840C1063BD5012AC2
:1031100039D10020019018680190586801900198F9
:103120005869400640D4A08DE18DE28D002A1CBF75
:10313000401A5FEA004101D102B0B0BD216851E8F8
:10314000031F226821F4907142E80313002BF5D18C
:10315000216851E8051F226821F0010142E80513AA
:10316000002BF5D1202184F83E100021216300BFFF
:10317000216851E8031F226821F0100142E803137F
:10318000002BF5D152E0010656D44006D4D5204696
:1031900001F0A6F902B0B0BDC20718BF11F48072E9
:1031A0004FD1420753D459E0A06B016849688AB2F5
:1031B000002AC1D0A38D9A42BED2E185C069B0F584
:1031C000807F30D0206850E8030F216820F48070A1
:1031D00041E80302002AF5D1206850E8050F216874
:1031E00020F0010041E80502002AF5D1206850E8EE
:1031F000050F216820F0400041E80502002AF5D1C2
:10320000202084F83E000020206300BF206850E8A2
:10321000030F216820F0100041E80302002AF5D1D5
:10322000A06BFEF7DBFAA08DE18D401A81B220463B
:10323000FFF748FF02B0B0BD204601F02DFA02B002
:10324000B0BD226C42F001022264420706D5BEF1F5
:10325000000F03D0226C42F002022264820706D5DE
:10326000BEF1000F03D0226C42F004022264BCF1D4
:10327000000F06D55EEA050203D0226C42F0080278
:103280002264226C002A3FF457AF0840800602D522
:10329000204601F031F920684069216C00F04000BF
:1032A00001F00801401827D0204601F0F1F820680D
:1032B000406940061BD500BF206850E8050F216813
:1032C00020F0400041E80502002AF5D1A06B70B162
:1032D00044F28141C0F600010165FEF7BFFA002803
:1032E0003FF42AAFA06B016D884702B0B0BD204605
:1032F000FFF7EAFE02B0B0BD2046FFF7E5FE002072
:10330000206402B0B0BD0000002804BF0120704757
:1033100010B5044690F83D0028B9002084F83C0020
:10332000204600F021F8242084F83D002068C16880
:1033300021F40051C160204601F040F92068016984
:1033400021F490410161416921F02A014161C16884
:1033500041F40051C16000202021206484F83D1018
:1033600084F83E1010BD00002DE9F04F87B00446F0
:10337000006844F60001C4F2000100268842CDE94D
:103380000566CDE90366029600F0968041F20041A1
:10339000C4F20101884200F0DE8041F20001C4F273
:1033A0000101884240F04D81002743F6300001972B
:1033B000C4F202004169002541F0100141614169F8
:1033C000C4F2020501F01001019101990197016811
:1033D00002AE41F002010160016846F2280801F0E6
:1033E000020101910199019701684FF0020941F032
:1033F0000101016000684FF0030A00F00100019034
:103400000198802002904FF0070B05F5806031464F
:10341000C4F20208CDE90397CDF814A0CDF818B096
:10342000FEF76CFB4FF40070CDE9020904A880E8B8
:10343000800C28463146FEF761FB40F2C41508F5C2
:103440009260C2F200054FF0006A4021C5E9000A0F
:1034500005F108004FF4806980E882024FF440369D
:103460002846C5E90577EF61C5E90867FEF7CEFA9A
:10347000002818BFFDF714FC6563AC6340F26415C7
:1034800008F58360C2F200054FF48071C5E9000AB7
:103490002846C5E90277C5E90497C5E90671C5E97B
:1034A0000867FEF7B3FA002818BFFDF7F9FBA5631C
:1034B00005F138002525BBE043F630000196C4F243
:1034C0000200016941F480210161016901F4802158
:1034D000019101990196016841F0040101600068C1
:1034E00002A900F00400019001984FF4406002909E
:1034F0000220CDE903060320059007200690002056
:10350000C4F2020000F50060FEF7F8FA40F224254C
:1035100046F22800C2F20005C4F202004FF000613A
:1035200085E843004FF440304FF480624FF48073DD
:10353000C5E908062846C5E90362C5E90566EB61E9
:10354000FEF764FA002818BFFDF7AAFBA56305F192
:10355000380027256CE0002643F630000196C4F2BF
:103560000200416946F2280841F0200141614169A9
:10357000C4F2020801F0200101910199019601684D
:1035800041F040010160006802A900F04000019094
:1035900001984FF4844002900220CDE903060320F5
:1035A0000590082006900020C4F2020000F5C050EB
:1035B000FEF7A4FA40F2842508F58060C2F2000507
:1035C0004FF0206A4FF480694FF48071C5E9000A1A
:1035D0004FF440372846C5E90266C5E90496C5E9B7
:1035E0000661C5E90876FEF711FA002818BFFDF755
:1035F00057FBA563AC6340F2E42508F58F60C2F287
:1036000000054021C5E9000A05F1080080E84202F2
:103610002846C5E90566C5E907676E62FEF7F6F953
:10362000002818BFFDF73CFB656305F1380047250E
:103630000460284600210022FEF706FD2846FEF71A
:10364000FFFC07B0BDE8F08F704700007047000036
:10365000FEE70000B0B584B040F2840042F2000101
:1036600001230024C2F20000C4F20101C0F600737D
:103670000125CDE90244CDE900444FF480320476BF
:1036800080F82040C0E90A34C56180F8304080E805
:103690001600C0E903444561FDF78CFB002818BF04
:1036A000FDF7FEFA1020CDE9000540F28400C2F2D9
:1036B000000069460294FDF7F9FA002818BFFDF7EB
:1036C000EFFA04B0B0BD0000B0B584B040F2CC0059
:1036D00042F2002101230024C2F20000C4F20101E1
:1036E000C0F600730125CDE90244CDE900444FF452
:1036F0008032047680F82040C0E90A34C56180F841
:10370000304080E81600C0E903444561FDF752FBF4
:10371000002818BFFDF7C4FA0820CDE9000540F2E3
:10372000CC00C2F2000069460294FDF7BFFA0028FF
:1037300018BFFDF7B5FA04B0B0BD000010B540F2F7
:10374000141046F20041C2F20000C4F2000103224C
:1037500000234FF0012480E80E0000F10C014FF42B
:10376000102C4FF4001E81E8085084618383FDF71C
:1037700031FE002818BFFDF793FA10BD10B540F2D6
:103780003C1046F60001C2F20000C4F20001032220
:1037900000234FF0012480E80E0000F10C014FF4EB
:1037A000102C4FF4001E81E8085084618383FDF7DC
:1037B00011FE002818BFFDF773FA10BD80B582B066
:1037C000002043F630010190C4F202010A6842F47D
:1037D00000120A600A6802F400120192019A009035
:1037E0000868002240F4800008600868002100F4A6
:1037F0008000009000980C20FEF726FC0C20FEF7BD
:103800001FFC392000210022FEF71EFC3920FEF7A4
:1038100017FC3A2000210022FEF716FC3A20FEF7A2
:103820000FFC452000210022FEF70EFC4520FEF78C
:1038300007FC462000210022FEF706FC4620FEF78A
:10384000FFFB02B080BD00002DE9F04F87B00025DE
:1038500043F630000695CDE90455CDE902550195B2
:10386000C4F20200016840F2000A41F00201016066
:103870000168C4F2020A01F0020101910199019567
:1038800001680AF5006941F0400101600168002209
:1038900001F0400101910199019501684FF4807791
:1038A00041F001010160016801F0010101910199FC
:1038B0000195016841F008010160016801F008010B
:1038C000019101990195016841F0040101600168CD
:1038D00001F00401019101990195016841F48071A1
:1038E0000160016801F480710191019901950168FD
:1038F00041F020010160016801F02001019101996E
:103900000195016841F080010160016801F08001CA
:10391000019101990195016841F010010160006871
:103920004FF4807100F01000019001984846FEF7B6
:10393000B3F90AF5C0563046402101220124FEF7B2
:10394000ABF90AF5E05B58464FF4E0510022FEF770
:10395000A3F9504610210122FEF79EF90AF580686E
:10396000404641F201010122FEF796F9CDE90274C9
:1039700002AF48463946CDE90455FEF7BFF840206E
:1039800002A931C1304639460595FEF7B7F84FF424
:10399000E05002A931C1584639460595FEF7AEF808
:1039A000082002904FF4041B30463946CDE903B499
:1039B000FEF7A4F84FF48810CDE9030550463946C8
:1039C0000294FEF79BF81020CDE902040225504630
:1039D000394604940595FEF791F83020CDE9020BA5
:1039E000484639460494FEF789F841F20100CDE9D2
:1039F000020440463946CDE90445FEF77FF806202B
:103A000000210022FEF720FB0620FEF719FB09200B
:103A100000210022FEF718FB0920FEF711FB0A2007
:103A200000210022FEF710FB0A20FEF709FB1720F9
:103A300000210022FEF708FB1720FEF701FB07B06C
:103A4000BDE8F08F80B540F2443045F60001C2F287
:103A50000000C4F2000141F6802200234FF4804CA4
:103A6000C0F2060280E80E00C0E9033CC0E905335D
:103A7000C0E90733FEF71CF9002818BFFDF710F95D
:103A800080BD000080B540F2983045F60041C2F29A
:103A90000000C4F2000141F6802200234FF4804C64
:103AA000C0F2060280E80E00C0E9033CC0E905331D
:103AB000C0E90733FEF7FCF8002818BFFDF7F0F85F
:103AC00080BD0000B0B540F2EC3043F20001C2F21C
:103AD0000000C4F201014FF48272002380E80E005E
:103AE00000F10C014FF0020C4FF0010E4FF4007486
:103AF000182581E808500A21C0E90645C0E90833C5
:103B0000C0E90A31FEF766FD002818BFFDF7C8F8C6
:103B1000B0BD000080B540F2444043F60001C2F25F
:103B20000000C4F200014FF48272002380E80E000E
:103B300000F114014FF4007C4FF0100E81E80850A2
:103B40000A21C0E90333C0E90833C0E90A31FEF7AE
:103B500041FD002818BFFDF7A3F880BD80B588B0EF
:103B600040F2E44044F200420021C2F20000C4F2FC
:103B70000102A72340F2CF7C0791CDE90511CDE9E1
:103B80000311CDE90111C0E90023C0E9021C016164
:103B90008161FEF77FFE002818BFFDF781F840F233
:103BA000E440C2F20000FFF799F9002818BFFDF7C2
:103BB00077F8602001900020CDE90200059040F2E6
:103BC000E440C2F2000001A90022FFF73BF90028FF
:103BD00018BFFDF765F840F2E440C2F20000FFF7BD
:103BE0009BF808B080BD000010B596B040F29C4034
:103BF00000220021C2F20000C4F20102A72344F611
:103C00001F641591CDE91311CDE91111CDE90F1103
:103C1000CDE90D11CDE90B11CDE90911CDE9071160
:103C2000CDE90511CDE90311CDE90111C0E900236A
:103C3000C0E90214C0E904118161FEF72BFE0028DF
:103C400018BFFDF72DF84FF48050129040F29C40C1
:103C5000C2F2000012A9FEF737FF002818BFFDF7D7
:103C60001FF840F29C40C2F20000FFF737F900282D
:103C700018BFFDF715F840F29C400024C2F2000086
:103C800010A9CDE91044FEF7A9FD002818BFFDF7E3
:103C900007F86020CDE9090440F29C40C2F2000020
:103CA00009A90022CDE90B44CDE90D440F94FFF79B
:103CB000C9F8002818BFFCF7F3FF40F29C40C2F29D
:103CC000000009A90422FFF7BDF8002818BFFCF77F
:103CD000E7FF00200590CDE90300CDE901004FF496
:103CE0000051089040F29C400691C2F2000001A9E8
:103CF000FEF74EFD002818BFFCF7D2FF40F29C40B3
:103D0000C2F20000FFF708F816B010BD80B586B00B
:103D100040F22C500021C2F200004FF080425323A9
:103D200041F2873CCDE90411CDE90211CDE9001142
:103D3000C0E90023C0E9021C01618161FEF7AAFD10
:103D4000002818BFFCF7ACFF4FF48050029040F2FF
:103D50002C50C2F2000002A9FEF7B6FE002818BFE0
:103D6000FCF79EFF0020CDE9000040F22C50C2F28B
:103D700000006946FEF732FD002818BFFCF790FFEF
:103D800006B080BD10B58AB040F2745040F6000114
:103D90000024C2F20000C4F200014FF47A730994C7
:103DA000CDE90744CDE90544CDE90344CDE901441B
:103DB000532280E81600C0E903348461FFF78EF8CF
:103DC000002818BFFCF76CFF40F27450C2F20000EC
:103DD00008A9CDE90844FEF701FD002818BFFCF74B
:103DE0005FFF602001900020CDE90200059040F2C5
:103DF0007450C2F2000001A90822FFF723F800283E
:103E000018BFFCF74DFF40F27450C2F20000FEF7FD
:103E100083FF0AB010BD000080B586B040F2BC50F0
:103E200040F600420021C2F20000C4F20002532317
:103E30004FF0FF3CCDE90411CDE90211CDE90011AD
:103E4000C0E90023C0E9021C01618161FEF722FD87
:103E5000002818BFFCF724FF4FF48050029040F276
:103E6000BC50C2F2000002A9FEF72EFE002818BFC7
:103E7000FCF716FF0020CDE9000040F2BC50C2F272
:103E800000006946FEF7AAFC002818BFFCF708FFEF
:103E900006B080BD10B596B040F2046040F200421A
:103EA0000021C2F20000C4F20102A72340F6C314AD
:103EB0001591CDE91311CDE91111CDE90F11CDE91E
:103EC0000D11CDE90B11CDE90911CDE90711CDE9AE
:103ED0000511CDE90311CDE90111C0E90023C0E9C5
:103EE0000214C0E904118161FEF7D4FC002818BF58
:103EF000FCF7D6FE4FF48050129040F20460C2F2FC
:103F0000000012A9FEF7E0FD002818BFFCF7C8FE6C
:103F100040F20460C2F20000FEF7E0FF002818BF84
:103F2000FCF7BEFE40F204600024C2F2000010A9BB
:103F3000CDE91044FEF752FC002818BFFCF7B0FE94
:103F4000602009904FF4C870CDE90A0440F2046083
:103F5000C2F2000009A90422CDE90C44CDE90E44C7
:103F6000FEF770FF002818BFFCF79AFE40F20460CD
:103F7000C2F2000009A90822FEF764FF002818BF5A
:103F8000FCF78EFE00200590CDE90300CDE901008D
:103F90004FF40051089040F204600691C2F2000014
:103FA00001A9FEF7F5FB002818BFFCF779FE40F2E7
:103FB0000460C2F20000FEF7AFFE16B010BD0000B4
:103FC00080B540F24C6041F20001C2F20000C4F240
:103FD00001014AF2201200234FF00C0CC0F207023C
:103FE00080E80E00C0E90333C0E905C3C361FFF7F1
:103FF0008BF9002818BFFCF753FE80BD10B540F2C6
:10400000906044F6000C48F2A062C2F20000C4F2D4
:10401000000CC0F201024FF4805300214FF4806E77
:104020000424C0E900C2C0E90231C0E904E4C0E9E7
:104030000611FFF769F9002818BFFCF731FE10BD23
:1040400080B540F2D46041F20041C2F20000C4F2F7
:10405000010100234FF00C0C4FF4612280E80E00A8
:10406000C0E90333C0E905C3C361FFF74DF9002878
:1040700018BFFCF715FE80BDFEE70000FEE700005C
:1040800000F0070080F00703042B28BF04234FF043
:10409000FF3C03380CFA03F338BF002099438140FA
:1040A0000CFA00F022EA0000084370477047000055
:1040B00070470000B0B501380024B4EB106F1CBF8E
:1040C0000120B0BD4EF21005CEF2000568604FF041
:1040D000FF300F2102F0F6F80720AC602860204680
:1040E000B0BD000080B5FDF73DFF80BD4EF68850A5
:1040F000CEF20000016841F47001016070470000D9
:1041000080B540F22C50C2F20000FEF74FFD80BD9A
:1041100080B540F2BC50C2F20000FEF747FD80BD02
:1041200080B540F20460C2F20000FEF73FFD80BDA2
:1041300080B540F20460C2F20000FEF737FD80BD9A
:1041400010B540F6FF3E0368C4F2000E40F2004C8A
:104150007045C4F2010C0FDCB0F1804F19D040F271
:104160000042C4F20002904213D040F60002C4F2B2
:10417000000290420DD010E040F60042C4F200026E
:10418000904206D0604504D00022C4F20102904261
:1041900003D14A6823F07003134341F6FF72C4F25F
:1041A000000290420DDC70451FDCB0F1804F41D021
:1041B00040F20042C4F2000290423BD040F60002BE
:1041C00021E043F6FF72C4F20102904220DC42F289
:1041D0000002C4F2000290422CD00022C4F201027C
:1041E000904227D0604525D028E040F60042C4F236
:1041F000000290421ED041F60002C4F2000290423A
:1042000018D041F60042C4F20002904212D015E0EC
:1042100044F20002C4F2010290420BD044F60002C4
:10422000C4F20102904205D044F20042C4F20102FD
:10423000904203D1CA6823F44073134323F08002F1
:104240004B69D1F800E08C681A430260C46240F404
:104250008062C0F828E0624504BF0969016301215A
:10426000416110BD80B501F01F014FF0010CD0F885
:1042700020E00CFA01F32EEA03030362036A02FA58
:1042800001F11943016280BDD0F808C011432CF43C
:104290007F4C41EA032141EA0C0181607047000034
:1042A000826822F07002114341F00701816070477B
:1042B000B0B5026A40F2004522F001020262026AD1
:1042C000D0F804E0D0F818C08C6822F0020240F464
:1042D0008063C4F20105AB4242EA040205D1CC6816
:1042E00022F00C0224F0040422430C68AB4207D1F4
:1042F000D1E905532EF4407E45EA0E0545EA030E4A
:104300002CF073032343C0F804E0836149684163E0
:104310000262B0BD70B5026A40F2004422F01002A1
:104320000262026AD0F804E0D0F818C08D6822F06A
:10433000200240F48063C4F20104A34242EA051261
:1043400007D1CD686FF0400622F0C00206EA0515DD
:104350002A430D68A34207D1D1E905642EF44063D6
:1043600043EA860343EA840E2CF4E64343EA05233A
:10437000C0F804E0836149688163026270BD000097
:1043800070B5026A40F2004422F480720262026A4E
:10439000D0F804E0D0F81CC08D6822F4007240F41C
:1043A0008063C4F20104A34242EA052207D1CD682A
:1043B00040F2FF462D0222F44062B5432A430D68C5
:1043C000A34207D1D1E905642EF4405343EA061312
:1043D00043EA041E2CF073032B43C0F804E0C361CE
:1043E0004968C163026270BD70B5026A40F200465E
:1043F00022F480520262026A4368D0F81CE00C6822
:10440000D1F808C040F48065C4F20106B54204D179
:104410004D6923F4804343EA85132EF4E64646EAC9
:1044200004264360C66122F40052496842EA0C3215
:104430000164026270BD0000D0F820C0036A23F05E
:1044400001030362836923F0F00343EA02122CF0B4
:104450000A0319438261016270470000036A23F076
:10446000100303628369D0F820C023F4704343EA49
:1044700002322CF0A00343EA01118261016270470D
:1044800080B5806B0021C185C184FEF71DFE80BD13
:10449000016851E8031F026821F4907142E8031398
:1044A000002BF5D1016851E8051F026821F00101D8
:1044B00042E80513002BF5D1016B01290AD100BF99
:1044C000016851E8031F026821F0100142E803135C
:1044D000002BF5D1202180F83E10002101637047A8
:1044E00080B50168CA6822F04002CA60202180F8C5
:1044F0003D10FFF7ABF880BD80B582B090F83E105C
:1045000022291ED18268B2F5805F02D1016900299B
:1045100048D0816AB2F5805F07D00AB9026922B13A
:104520000268526802F07F0201E0026852680A7075
:104530000121826A11448162C18D01390A04C18559
:1045400001D002B080BD0168CA6822F02002CA60B2
:10455000CA6822F48072CA604A6922F001024A6184
:10456000202180F83E10016B012923D10021016335
:10457000016851E8031F026821F0100142E80313AB
:10458000002BF5D101680A68D20606D500220192F7
:104590000A680192496801910199818DFEF792FDA7
:1045A00002B080BD0168826A49686FF35F211180A3
:1045B0000221BEE7FFF748F802B080BD10B50446FF
:1045C0000068D4E902C22369016921F44051114312
:1045D0000161626943EA0C01E3691143C26819434E
:1045E00049F20C639A431143C1604169A26921F405
:1045F000407141F20043114340F48062C4F2010370
:104600009A42416102D1FDF7FBFD01E0FDF7E6FDB5
:10461000E16963681922B1F5004FA0FB02011CD1CA
:104620005A00DB0FFBF72EFE48F21F51C5F2EB11CB
:10463000A0FB01235A096FF0630302FB030032233E
:1046400003EBC000A0FB01014FF4F87000EA111069
:1046500000EB0210C1F342111AE09A009B0FFBF726
:1046600011FE48F21F51C5F2EB11A0FB01235A09BC
:104670006FF0630302FB0300322303EB0010A0FB87
:104680000101F02000EA511000EB0210C1F34311C8
:1046900022680843906010BD90F83D10212923D175
:1046A0008168B1F5805F01D1016931B1016A0268A9
:1046B0004B1C03620978516007E0016A036831F816
:1046C000022B6FF35F225A600162C18C01390A0428
:1046D000C18418BF70470068C16821F08001C160C3
:1046E000C16841F04001C1607047000010B582B060
:1046F00040F24C64C2F200042046FEF7E7FC20685A
:104700000168C90606D50021019101680191406840
:104710000190019802B010BD80B582B040F2906067
:10472000C2F2000000680168890608D444F600015E
:10473000C4F200010968C9060AD402B080BD002194
:1047400001910168019140680190019802B080BD1B
:104750000021009101682423009140680090009896
:1047600040F22420C2F200000068026801681203CF
:1047700021F0010101604168436089B213D40268ED
:10478000122942F400220260026842F00102026033
:10479000D3D140F21870C2F2000000F011FD0028E1
:1047A000CBD0014617E046F22802C4F20202136899
:1047B000122923F400231360026842F00102026010
:1047C000BBD140F21870C2F2000000F0F9FC0028E2
:1047D000B3D000F1240100F033FD02B080BD000031
:1047E00010B582B040F2D464C2F200042046FEF755
:1047F0006DFC20680168C90606D500210191016899
:10480000019140680190019802B010BDFEE70000E0
:1048100080B501F08DFD80BD70B592B006AC20462C
:104820003021FBF75FFE002543F640000595CDE9FA
:104830000355CDE901550095C4F202000168022636
:1048400041F080510160006800F0805000900098B5
:1048500047F200000095C4F20000016841F4804175
:104860000160006800F480400090009809200690E4
:104870004FF48030079001200B904FF480000D9092
:1048800006200E90A820CDE90F06042011902046A6
:104890000C96FDF7FBFC88B90F20CDE901064FF41B
:1048A000A05004904FF48050059001A80521039575
:1048B000FDF7DEFB002804BF12B070BDFCF7F0F975
:1048C00010B50C4601F0B8FC46F61411C0F6000114
:1048D00008310160046210BDFEDE00007047000078
:1048E0007047000080B5006A01F0A4FA80BD0000A6
:1048F000B0B51C46154601F09FFC46F63011C0F6D7
:104900000001083101600562C460B0BD80B501F0EE
:104910009DFC01F0A9FC80BD7047000070470000BD
:1049200080B5D0E90821104601F028FB80BD0000C9
:1049300070B5049E1C46154601F07EFC46F64C11EF
:10494000C0F6000108310160698B0562C66061B183
:1049500005F16C01002200BF0B68A34208D06B8BED
:1049600001329A4201F12001F6D30021C16070BDED
:10497000416270BD80B501F069FC01F075FC80BD3D
:1049800046F66811C0F6000108310160704700006A
:1049900080B54FF48031C162016A002280F8242082
:1049A000084600F011FC01F01BF880BD70470000C4
:1049B00010B5044600F016F8002884F8240008BF5B
:1049C00010BD206A00F000FC01F00AF894F83200F3
:1049D00020B12068C1682046884710BD204601F0FC
:1049E00027FC10BD2DE9F041858D068EB5422CD2F5
:1049F0000446806A30F81510E08DC1F3032290421E
:104A000010D2206A01F00F08C1F3031700F0DCFB9D
:104A100007EB470104EBC10101EB4801898E00F06F
:104A2000E7FF0BE0090B01EB410102EB410188427A
:104A300007D2206A00F0C8FB00F0D2FFE08D013001
:104A400002E0681CA0850020E0850020B54228BF58
:104A50000120BDE8F08100002DE9F041DDE9068785
:104A60001C4615460646FFF72BFF46F67810C0F6A3
:104A70000000083046F69C01306006F13400C0F6B4
:104A800000016022FBF7FCFC00213046F760317129
:104A9000B56286F83280348686F82410BDE8F0814D
:104AA00080B501F0D3FB01F0DFFB80BD10B50C46F3
:104AB00001F0C2FB46F69411C0F600010831016016
:104AC000046210BDFEDE000080B5203000F070FCF6
:104AD00080BD000080B5203000F0EEFD80BD0000FC
:104AE00080B5203000F0ECFD80BD000080B52030A6
:104AF00000F05AFC80BD00007047000070470000C5
:104B000080B5FFF7E1FF80BD80B5203000F0D0FD1B
:104B100080BD0000B0B51446054601F08DFB46F699
:104B2000B010C0F600000830286005F1200000F049
:104B3000E9FD2846EC60B0BD80B501F087FB01F0CF
:104B400093FB80BD44F23441C4F234414166816636
:104B5000C1660167704700007047000070470000A1
:104B6000416A21B191F82410002908BF7047FF2144
:104B700080F82810704700002DE9F04383B090F9C9
:104B80002860170CB6EB124F1CDA044694209946A5
:104B90001546884601F06AFB216A09F0010244F2D9
:104BA000506C0092ABB24246CDF804C0FFF754FF00
:104BB000216A6062084600F0EDFA616A01F0FCF9D2
:104BC00084F828700020B742C8BF012003B0BDE8B8
:104BD000F083000010B51446FFF772FE46F6CC11C4
:104BE000C0F6000108310160002101770171C46045
:104BF00010BD000080B501F029FB01F035FB80BD40
:104C000080B5406A00F072FF80BD0000406A7047C6
:104C1000406B7047704700007047000080B5406AE5
:104C2000002808BF80BD02685268904780BD000020
:104C30002DE9F04F83B0DDE90C8BDDE90EA7994635
:104C400016460D460446FFF731FF46F6E810C0F65B
:104C5000000008302060A420A662E76001F006FB97
:104C6000216A0022FFF756FF2063A42001F0FEFA1C
:104C7000216A0022FFF74EFF6063D02084F82CB039
:104C800001F0F4FA0746284600F0A2FA0146384639
:104C900032464346CDE9009BCDF808A001F032F83A
:104CA0002846676200F094FA616A00F027FE204609
:104CB00003B0BDE8F08F000080B501F0C7FA01F045
:104CC000D3FA80BD10B50446406A28B1206A00F0CE
:104CD00061FA616A01F070F9606AFFF799FF0028D4
:104CE00008BF10BD206A00F055FA616A0446084604
:104CF000FFF78EFF0146204601F05EF910BD00006F
:104D00007047000000000000B0B5ACB00446006A77
:104D100000F04AFA01461EA800F0E2FA94F95000A9
:104D200058B1BDF980104FF0FF358AB2D30B00297E
:104D3000C8BF05EBD233834266D1BDF88020002185
:104D400010B202EBE03282EAE03292B2952A84F8A5
:104D5000501002D8606A218757E000EE100A9FEDDC
:104D60004A1AB8EEC00A9FED492A20EE010A80EEE9
:104D7000020AB1EE041A606A20EE010ABDEEC00A12
:104D800010EE101A2187FFF741FF014601A800F03D
:104D9000B7FEBDF80A10606A2186FFF737FF01AD44
:104DA0000146284600F0ACFEBDF90C00B4F94020E5
:104DB00000EBE03181EAE03189B29142A4F8480089
:104DC00028DD216A284600F0D3F8206A643500F017
:104DD000D7F80822C0F2010229460023FFF7CCFED3
:104DE000206A00F0F1F9012100220023012500F0E2
:104DF00019FEB4F94800C1130028C8BF05EBE03123
:104E0000606A84F8501000E0606A0021FFF7F8FE45
:104E10002CB0B0BD206A00F0D7F900210022002399
:104E200000F000FE606AFFF7F3FEB4F9381000EE00
:104E3000101AB8EEC00AFFF74DFE606AFFF7E8FEF1
:104E4000B4F9301000EE101AB8EEC00AFFF74EFEAB
:104E5000606AFFF7DDFEFFF757FEBDEEC00A10EEF9
:104E6000100A656A208501F040FC9FED050B53ECAC
:104E7000102B01F0B1FA01F009FC01462846C5E704
:104E800000000000000008400000484400002544E5
:104E90002DE9F04184B0DDE90A8516460F46044647
:104EA000FFF70EFD46F60420C0F600000830206033
:104EB0006FF0F02020646064002084F85000E5600A
:104EC000BEB3707D02280AD0012824D1382001F019
:104ED000CDF9216A0546084600F05EF907E0382062
:104EE00001F0C4F9216A0546084600F059F9318AF3
:104EF000327D96ED060A738A84460220BCEEC00A13
:104F0000CDE9001202902846394662468DED030A2B
:104F1000FFF78EFE6562606AFFF778FE96E88E0006
:104F2000D6E9045CB669CDE90075CDE902C600F0AA
:104F3000D3FEB8F1000F10D0606AFFF769FE41465A
:104F4000FFF7CEFD606AFFF763FE98ED0F0ABCEE37
:104F5000C00A10EE101A01F069F9204604B0BDE84D
:104F6000F081000080B501F071F901F07DF980BD9C
:104F700080B541F6A43211447422FBF781FA80BD5A
:104F800041F628414058704780B5043001F07AF866
:104F900080BD000070B582B0054641F6A4304FF4E4
:104FA000DD51695C2C18204600F0A2F8542001F075
:104FB0005DF994ED080A04F1080204F12406BCEE40
:104FC000C00A294600238DED010A0096FFF760FF15
:104FD00005F6A87640F21411C4F8800005F5B55224
:104FE000C2F200013046142300F0CCFE242001F070
:104FF0003DF9294632463223FFF77AFC60672820C4
:1050000001F034F994ED000A2946BCEEC00A32469C
:105010004FF400738DED000AFFF78AFCE06705F698
:10502000F81000F017F92C2001F020F94DF2900251
:10503000C0F203022946FFF7CDFDC4F8840040F218
:105040002C50C2F20000FDF7EBFC40F2BC50C2F263
:105050000000FDF7E5FC40F29C40C2F20000002198
:10506000FDF788FF40F27450C2F200000821FDF7FE
:1050700081FF40F2E440C2F200000021FDF77AFF18
:1050800000F030FC94ED080AD4F88000BCEEC00AB1
:1050900010EE101A01F0CAF8D4F880100435284632
:1050A00000F08AFF616F284600F086FFE16F284616
:1050B00000F082FFD4F88410284600F07DFF02B093
:1050C00070BD000010B5044600F086F846F62020BA
:1050D000C0F60000083020604FF4DD50002121545C
:1050E00041F6A430204400F051F8204610BD0000E5
:1050F00010B54FF482738383002349F69A1240F26D
:10510000002CC4F25813C3F699524BF2000E002142
:10511000C0F2032CC0E9023201224FF40053C4F262
:105120007E6EC0F81E104184C0E90411C0F818C09A
:1051300002744382C18280F8241044F2000345F2D5
:10514000000C4BF2000480F84C20C0E9141180F8E8
:10515000582040F20402C0E90A11C0E90E11C0E96A
:10516000101E44F20001C4F21C63C4F6C30CCCF25E
:105170007E64C2F20002C4F21C518464C0E90C3C9B
:105180000162C0E91721016010BD000080B5FFF782
:10519000D9FC80BD0430704700F6A870704700004D
:1051A00041F224310844704700F6F81070470000BF
:1051B00000F6A8707047000041F22431084470479F
:1051C00000F6F8107047000000F67C1070470000F1
:1051D00000F6B8207047000010B50446FFF7D0FB7A
:1051E00046F63020C0F6000000F10801204640F8E5
:1051F000041B01F00DF804F67C1000F035FC04F6F9
:10520000F81000F08DF804F6B82000F08BFB04F6DF
:10521000447000F0B3F804F6A87000F0C3FE41F249
:105220002430204400F0BEFE204610BD10B50446D8
:1052300000F6F81000F076F8204610BDC164704703
:1052400080B5C06C002808BF80BD026852689047D6
:1052500080BD0000B0B50446402001F007F82146AB
:10526000054600F0DBFA20462946FFF7E7FFE06C31
:1052700001680968884740F29060C2F20000006847
:10528000416941F040014161C16841F01001C160D4
:1052900040F22420C2F200000068016821F0010100
:1052A00001600168C90706D0016821F001010160B1
:1052B0000168C907F8D144F60401C4F20001816015
:1052C00004F12401C460016124214160016841F4BA
:1052D00080210160016841F001010160B0BD000062
:1052E0002DE9F04F82B00A6D01F1600B0092D1F808
:1052F000802001F1540E0192009A9BE8F00F9EE885
:10530000085080E80C5000F11002D1F8841082E8B7
:10531000F00F019AC0E90C2102B0BDE8F08F000047
:105320007047000070470000B0B5418942683424DE
:10533000D0E903CE436901FB0421046AD0E90625C4
:10534000C1E915CEC1E91954C1E91732D0E909CE36
:10535000D0E90B54D0E90D32C1E91D54C1E91F3227
:10536000C1E91BCEC06BC1F88400B0BD46F6402237
:10537000C0F600020832C0E900217047B0B504460B
:10538000142500BF601900F0A1FB0C35382DF9D1B0
:10539000382500BF601900F099FB0C355C2DF9D160
:1053A00000212046A181B0BD80ED050A70470000B4
:1053B00080B590ED000AD0ED050A90ED0A1A00F0D4
:1053C00001F880BD10B52DED068B02EE101A9FED91
:1053D000B63AB8EE422A82EE038AB7EE002A0446B5
:1053E00080ED000AC0ED050AC06F9FEDB00AB5EE72
:1053F000408A82EE089AF1EE10FA08BFB0EE409AA9
:1054000084ED0A1A48B940F27400C2F20000017833
:1054100041F08001017000F06FFA94F84400012817
:1054200000F08A80002840F03A81E06F94ED031A82
:10543000016894ED000A0968F1EE410A8847E06FBF
:1054400094ED171A94ED043A016884ED010A20EEF8
:10545000010A94ED084A94ED0E5A29EE002A94EDC3
:10546000050A21EE031A096821EE051AF1EE440A35
:1054700032EE41AA8847E06F94ED161A94ED094A7E
:1054800094ED0E5A016884ED060A20EE010A94EDAF
:10549000053A21EE041A29EE002A94ED000A21EEC5
:1054A000051A096831EE421AF1EE430A3AEE01AAF2
:1054B000884794ED0C2A94ED143A94ED154A30EE99
:1054C000422A23EE022A28EE003A94ED0A1A23EE2D
:1054D000043A94ED184A94F86C003AEE022A21EE50
:1054E000041A002833EE022A84ED0B0A00F0C18072
:1054F00094ED103A94ED194A32EE032A94ED1A5ABB
:1055000031EE021AB4EE441AB0EE412AF1EE10FA6E
:10551000C8BFB0EE442AB4EE452AF1EE10FAB4EE5C
:10552000441ABCBFB0EE454AB0EE441AF1EE10FA90
:10553000C8BFB0EE441AA2E0E06F94ED031A016810
:1055400094ED000A0968F1EE410A8847E06F94ED96
:10555000173A016884ED010A94ED051A94ED082AC2
:1055600020EE030A096829EE00AAF1EE420AB0EE25
:10557000410A8847E06F94ED162A016884ED060A17
:1055800094ED001A94ED053A20EE020A29EE000A85
:1055900009683AEE409AF1EE430AB0EE410A8847B4
:1055A00094ED141A94ED0F2A94F8780084ED0B0A08
:1055B00020EE011A28EE000A30EE020AE0B194ED66
:1055C0001C2A94ED1D3AB4EE420AB0EE404AF1EEC8
:1055D00010FAC8BFB0EE424AB4EE434AF1EE10FAF8
:1055E000B4EE420ABCBFB0EE432AB0EE420AF1EE7E
:1055F00010FAC8BFB0EE420A94ED153A94ED0A2AAB
:1056000094ED184A84ED0F0A20EE030A39EE011AD0
:1056100094F86C0022EE042A31EE000A30EE020A01
:10562000E0B194ED191A94ED1A2AB4EE410AB0EEE5
:10563000403AF1EE10FAC8BFB0EE413AB4EE423A49
:10564000F1EE10FAB4EE410ABCBFB0EE421AB0EE71
:10565000410AF1EE10FAC8BFB0EE410AD4E90001E8
:10566000D4E9052384ED100AC4E90823C4E9030141
:1056700015E094ED103A32EE011A31EE031AD4E936
:105680000001D4E9052384ED101AC4E90823C4E914
:10569000030184ED0C0A84ED0D8A84ED0E9A94EDDD
:1056A000100ABDEC068B10BD0024744900000000F8
:1056B00090ED100A7047000080ED000A704700006E
:1056C000B0B54C6901F10805D1E900CE2CCD846557
:1056D00000F14C042CC4C0E911CED1E906CED1E9C9
:1056E0000854D1E90A32C0E91954C0E91B32C0E9B3
:1056F00017CED1E90C23D1E90E15C0E91D23C0E96D
:105700001F15B0BD704700002DE9F04F8DB00C465D
:10571000002977D0054600F0D5F90C90E86394F89D
:1057200000E0627805F1200B62F30A2EA5F80AE08A
:105730006278A378D20863F34A12AA8194F802C06F
:10574000E1782379890041EA9C1103F0010341EAE1
:10575000832CA5F80EC0217966794B0866F3CA132D
:105760002B826179A2F58062C1F3011185F83110B5
:105770006179890985F83010A179E67941EA062135
:105780006986217A667A41EA0621A986A17AE67AB3
:1057900041EA0621E986217B85F83810617B85F88E
:1057A0003910A17BE67B41EA06216987217C667C72
:1057B000AA8141EA0621A1F58061AEF58066E985FE
:1057C00001216E812972A868ACF58062EA81A3F597
:1057D00080620B90D5E90D012A8205F10C0E9EE83E
:1057E0004C509BE8800FCDE908010C980B990A906A
:1057F00003A880E8800728468DE84050CDF81CB00B
:1058000000F016F8002C18BF012420460DB0BDE8AA
:10581000F08F0000704700007047000080B500F076
:1058200059F846F65C21C0F600010831016080BDE0
:10583000B0B5D0F804C0DCE914E5DCF85840CCF889
:105840008C50DCF85C50CCF89040DCF86040CCF830
:105850009450DCF86450CCF89840DCF86840CCF800
:105860009C50DCF86C50CCF8A040DCF87040CCF8D0
:10587000A450DCF87450CCF8A840DCF87840CCF8A0
:10588000AC50DCF87C50CCF8B040DCF88040CCF870
:10589000B450DCF88450CCF888E0CCE92E45406860
:1058A000C0E914120499059AC16506990266079A1F
:1058B000416608998266099AC1660A9902670B9A3D
:1058C00041670C9982670D9AC1670E998365C0E99B
:1058D0002021B0BD46F67022C0F600020832C0E9B1
:1058E0000021704740F24C60C2F20000006841693C
:1058F00041F0800141617047FEE7000080B519B1B9
:10590000B0F85020132A01D9002080BD531CA0F804
:1059100050300B684A8140F822101A6808469047B8
:10592000012080BD7047000080B5C1E9023200F05F
:105930002BF880BD2DE9F04FD1E901EC0EF101000B
:10594000B0FBFCF404FB1C0C0868844504BF042075
:10595000BDE8F08FC8684FEA4E1600EB4E15DDF833
:105960003880DDE90CA98251281DDDE90A7B099CFC
:1059700080E898080020C5E905A9C5F81C80C1F891
:1059800004C0BDE8F08F00000020C1E900007047AE
:1059900070B5D1E90003984204BF052070BDD1F86D
:1059A0000CC00CEB401340015D695CF800C0D3E90A
:1059B00001E0D3E90346556102F1080551C5C2E98A
:1059C00000CED3E90630C2E9063008688A680130A3
:1059D000B0FBF2F303FB12000860002070BD000072
:1059E00040F27450C2F2000000680021C1637047A9
:1059F00044F24020C0F20F00B0FBF1F040F2745CC2
:105A00000138C2F2000C4CF6CD4380B2DCF8002025
:105A1000CCF6CC43A0FB0331D062CCF80C00C80814
:105A2000D063704770B541F600451C461646012903
:105A3000C4F2020505D80A4628464FF48051FCF707
:105A40002BF9012E05D828464FF400613246FCF7A9
:105A500023F9012C88BF70BD28464FF4806122468F
:105A6000FCF71AF970BD000010B546F63C0104467B
:105A70000430C0F600016022FAF7BDFC44F24B008E
:105A8000C4F24B00606644F24B00C1F22B00A066EA
:105A900041F22B00C1F22B00E06644F22D00C4F26B
:105AA0002D00206744F22D00C1F22D00606741F205
:105AB0002D00C1F22D00A0674FF4803120462160F7
:105AC00010BD000080B500F0C3FB80BD0021C0E91F
:105AD000001181607047000090F87D10826F117096
